{
  "contractName": "CourseMarketplace",
  "abi": [
    {
      "inputs": [],
      "stateMutability": "nonpayable",
      "type": "constructor"
    },
    {
      "inputs": [],
      "name": "CourseHasOwner",
      "type": "error"
    },
    {
      "inputs": [],
      "name": "CourseIsNotCreated",
      "type": "error"
    },
    {
      "inputs": [],
      "name": "InvalidState",
      "type": "error"
    },
    {
      "inputs": [],
      "name": "OnlyOwner",
      "type": "error"
    },
    {
      "inputs": [
        {
          "internalType": "bytes16",
          "name": "courseId",
          "type": "bytes16"
        },
        {
          "internalType": "bytes32",
          "name": "proof",
          "type": "bytes32"
        }
      ],
      "name": "purchaseCourse",
      "outputs": [],
      "stateMutability": "payable",
      "type": "function",
      "payable": true
    },
    {
      "inputs": [
        {
          "internalType": "bytes32",
          "name": "courseHash",
          "type": "bytes32"
        }
      ],
      "name": "activateCourse",
      "outputs": [],
      "stateMutability": "nonpayable",
      "type": "function"
    },
    {
      "inputs": [
        {
          "internalType": "bytes32",
          "name": "courseHash",
          "type": "bytes32"
        }
      ],
      "name": "deactivateCourse",
      "outputs": [],
      "stateMutability": "nonpayable",
      "type": "function"
    },
    {
      "inputs": [
        {
          "internalType": "address",
          "name": "newOwner",
          "type": "address"
        }
      ],
      "name": "transferOwnership",
      "outputs": [],
      "stateMutability": "nonpayable",
      "type": "function"
    },
    {
      "inputs": [],
      "name": "getCourseCount",
      "outputs": [
        {
          "internalType": "uint256",
          "name": "",
          "type": "uint256"
        }
      ],
      "stateMutability": "view",
      "type": "function",
      "constant": true
    },
    {
      "inputs": [
        {
          "internalType": "uint256",
          "name": "index",
          "type": "uint256"
        }
      ],
      "name": "getCourseHashAtIndex",
      "outputs": [
        {
          "internalType": "bytes32",
          "name": "",
          "type": "bytes32"
        }
      ],
      "stateMutability": "view",
      "type": "function",
      "constant": true
    },
    {
      "inputs": [
        {
          "internalType": "bytes32",
          "name": "courseHash",
          "type": "bytes32"
        }
      ],
      "name": "getCourseByHash",
      "outputs": [
        {
          "components": [
            {
              "internalType": "uint256",
              "name": "id",
              "type": "uint256"
            },
            {
              "internalType": "uint256",
              "name": "price",
              "type": "uint256"
            },
            {
              "internalType": "bytes32",
              "name": "proof",
              "type": "bytes32"
            },
            {
              "internalType": "address",
              "name": "owner",
              "type": "address"
            },
            {
              "internalType": "enum CourseMarketplace.State",
              "name": "state",
              "type": "uint8"
            }
          ],
          "internalType": "struct CourseMarketplace.Course",
          "name": "",
          "type": "tuple"
        }
      ],
      "stateMutability": "view",
      "type": "function",
      "constant": true
    },
    {
      "inputs": [],
      "name": "getContractOwner",
      "outputs": [
        {
          "internalType": "address",
          "name": "",
          "type": "address"
        }
      ],
      "stateMutability": "view",
      "type": "function",
      "constant": true
    }
  ],
  "bytecode": "0x608060405234801561001057600080fd5b506100203361002560201b60201c565b610069565b80600360006101000a81548173ffffffffffffffffffffffffffffffffffffffff021916908373ffffffffffffffffffffffffffffffffffffffff16021790555050565b61116b806100786000396000f3fe60806040526004361061007b5760003560e01c8063935d7e6d1161004e578063935d7e6d1461014e57806396cfda0614610177578063d76821cb146101a2578063f2fde38b146101be5761007b565b80633926257214610080578063442890d5146100a957806362e4e6ac146100d45780636d11290b14610111575b600080fd5b34801561008c57600080fd5b506100a760048036038101906100a29190610ca0565b6101e7565b005b3480156100b557600080fd5b506100be6103ba565b6040516100cb9190610e78565b60405180910390f35b3480156100e057600080fd5b506100fb60048036038101906100f69190610ca0565b6103e4565b6040516101089190610ece565b60405180910390f35b34801561011d57600080fd5b5061013860048036038101906101339190610cc9565b61050b565b6040516101459190610e93565b60405180910390f35b34801561015a57600080fd5b5061017560048036038101906101709190610ca0565b610528565b005b34801561018357600080fd5b5061018c6107da565b6040516101999190610ee9565b60405180910390f35b6101bc60048036038101906101b79190610c64565b6107e4565b005b3480156101ca57600080fd5b506101e560048036038101906101e09190610c3b565b6109d0565b005b6101ef6103ba565b73ffffffffffffffffffffffffffffffffffffffff163373ffffffffffffffffffffffffffffffffffffffff1614610253576040517f5fc483c500000000000000000000000000000000000000000000000000000000815260040160405180910390fd5b61025c81610a48565b610292576040517f4db0c48300000000000000000000000000000000000000000000000000000000815260040160405180910390fd5b60008060008381526020019081526020016000209050600060028111156102e2577f4e487b7100000000000000000000000000000000000000000000000000000000600052602160045260246000fd5b8160030160149054906101000a900460ff16600281111561032c577f4e487b7100000000000000000000000000000000000000000000000000000000600052602160045260246000fd5b14610363576040517fbaf3f0f700000000000000000000000000000000000000000000000000000000815260040160405180910390fd5b60018160030160146101000a81548160ff021916908360028111156103b1577f4e487b7100000000000000000000000000000000000000000000000000000000600052602160045260246000fd5b02179055505050565b6000600360009054906101000a900473ffffffffffffffffffffffffffffffffffffffff16905090565b6103ec610b67565b6000808381526020019081526020016000206040518060a00160405290816000820154815260200160018201548152602001600282015481526020016003820160009054906101000a900473ffffffffffffffffffffffffffffffffffffffff1673ffffffffffffffffffffffffffffffffffffffff1673ffffffffffffffffffffffffffffffffffffffff1681526020016003820160149054906101000a900460ff1660028111156104c8577f4e487b7100000000000000000000000000000000000000000000000000000000600052602160045260246000fd5b6002811115610500577f4e487b7100000000000000000000000000000000000000000000000000000000600052602160045260246000fd5b815250509050919050565b600060016000838152602001908152602001600020549050919050565b6105306103ba565b73ffffffffffffffffffffffffffffffffffffffff163373ffffffffffffffffffffffffffffffffffffffff1614610594576040517f5fc483c500000000000000000000000000000000000000000000000000000000815260040160405180910390fd5b61059d81610a48565b6105d3576040517f4db0c48300000000000000000000000000000000000000000000000000000000815260040160405180910390fd5b6000806000838152602001908152602001600020905060006002811115610623577f4e487b7100000000000000000000000000000000000000000000000000000000600052602160045260246000fd5b8160030160149054906101000a900460ff16600281111561066d577f4e487b7100000000000000000000000000000000000000000000000000000000600052602160045260246000fd5b146106a4576040517fbaf3f0f700000000000000000000000000000000000000000000000000000000815260040160405180910390fd5b60008160030160009054906101000a900473ffffffffffffffffffffffffffffffffffffffff1673ffffffffffffffffffffffffffffffffffffffff1682600101546040516106f290610e63565b60006040518083038185875af1925050503d806000811461072f576040519150601f19603f3d011682016040523d82523d6000602084013e610734565b606091505b5050905080610778576040517f08c379a000000000000000000000000000000000000000000000000000000000815260040161076f90610eae565b60405180910390fd5b60028260030160146101000a81548160ff021916908360028111156107c6577f4e487b7100000000000000000000000000000000000000000000000000000000600052602160045260246000fd5b021790555060008260010181905550505050565b6000600254905090565b600082336040516020016107f9929190610e37565b60405160208183030381529060405280519060200120905061081a81610ab6565b15610851576040517fb0fc2d9700000000000000000000000000000000000000000000000000000000815260040160405180910390fd5b60006002600081548092919061086690610fb7565b9190505590508160016000838152602001908152602001600020819055506040518060a001604052808281526020013481526020018481526020013373ffffffffffffffffffffffffffffffffffffffff168152602001600060028111156108f7577f4e487b7100000000000000000000000000000000000000000000000000000000600052602160045260246000fd5b81525060008084815260200190815260200160002060008201518160000155602082015181600101556040820151816002015560608201518160030160006101000a81548173ffffffffffffffffffffffffffffffffffffffff021916908373ffffffffffffffffffffffffffffffffffffffff16021790555060808201518160030160146101000a81548160ff021916908360028111156109c2577f4e487b7100000000000000000000000000000000000000000000000000000000600052602160045260246000fd5b021790555090505050505050565b6109d86103ba565b73ffffffffffffffffffffffffffffffffffffffff163373ffffffffffffffffffffffffffffffffffffffff1614610a3c576040517f5fc483c500000000000000000000000000000000000000000000000000000000815260040160405180910390fd5b610a4581610b23565b50565b60008073ffffffffffffffffffffffffffffffffffffffff1660008084815260200190815260200160002060030160009054906101000a900473ffffffffffffffffffffffffffffffffffffffff1673ffffffffffffffffffffffffffffffffffffffff1614159050919050565b60003373ffffffffffffffffffffffffffffffffffffffff1660008084815260200190815260200160002060030160009054906101000a900473ffffffffffffffffffffffffffffffffffffffff1673ffffffffffffffffffffffffffffffffffffffff16149050919050565b80600360006101000a81548173ffffffffffffffffffffffffffffffffffffffff021916908373ffffffffffffffffffffffffffffffffffffffff16021790555050565b6040518060a00160405280600081526020016000815260200160008019168152602001600073ffffffffffffffffffffffffffffffffffffffff16815260200160006002811115610be1577f4e487b7100000000000000000000000000000000000000000000000000000000600052602160045260246000fd5b81525090565b600081359050610bf6816110d9565b92915050565b600081359050610c0b816110f0565b92915050565b600081359050610c2081611107565b92915050565b600081359050610c358161111e565b92915050565b600060208284031215610c4d57600080fd5b6000610c5b84828501610be7565b91505092915050565b60008060408385031215610c7757600080fd5b6000610c8585828601610bfc565b9250506020610c9685828601610c11565b9150509250929050565b600060208284031215610cb257600080fd5b6000610cc084828501610c11565b91505092915050565b600060208284031215610cdb57600080fd5b6000610ce984828501610c26565b91505092915050565b610cfb81610f20565b82525050565b610d0a81610f20565b82525050565b610d21610d1c82610f20565b611000565b82525050565b610d38610d3382610f32565b611012565b82525050565b610d4781610f5e565b82525050565b610d5681610f5e565b82525050565b610d6581610fa5565b82525050565b6000610d78601083610f0f565b9150610d8382611099565b602082019050919050565b6000610d9b600083610f04565b9150610da6826110c2565b600082019050919050565b60a082016000820151610dc76000850182610e19565b506020820151610dda6020850182610e19565b506040820151610ded6040850182610d3e565b506060820151610e006060850182610cf2565b506080820151610e136080850182610d5c565b50505050565b610e2281610f9b565b82525050565b610e3181610f9b565b82525050565b6000610e438285610d27565b601082019150610e538284610d10565b6014820191508190509392505050565b6000610e6e82610d8e565b9150819050919050565b6000602082019050610e8d6000830184610d01565b92915050565b6000602082019050610ea86000830184610d4d565b92915050565b60006020820190508181036000830152610ec781610d6b565b9050919050565b600060a082019050610ee36000830184610db1565b92915050565b6000602082019050610efe6000830184610e28565b92915050565b600081905092915050565b600082825260208201905092915050565b6000610f2b82610f7b565b9050919050565b60007fffffffffffffffffffffffffffffffff0000000000000000000000000000000082169050919050565b6000819050919050565b6000819050610f76826110c5565b919050565b600073ffffffffffffffffffffffffffffffffffffffff82169050919050565b6000819050919050565b6000610fb082610f68565b9050919050565b6000610fc282610f9b565b91507fffffffffffffffffffffffffffffffffffffffffffffffffffffffffffffffff821415610ff557610ff461102e565b5b600182019050919050565b600061100b8261101c565b9050919050565b6000819050919050565b60006110278261108c565b9050919050565b7f4e487b7100000000000000000000000000000000000000000000000000000000600052601160045260246000fd5b7f4e487b7100000000000000000000000000000000000000000000000000000000600052602160045260246000fd5b60008160601b9050919050565b7f5472616e73666572206661696c65642100000000000000000000000000000000600082015250565b50565b600381106110d6576110d561105d565b5b50565b6110e281610f20565b81146110ed57600080fd5b50565b6110f981610f32565b811461110457600080fd5b50565b61111081610f5e565b811461111b57600080fd5b50565b61112781610f9b565b811461113257600080fd5b5056fea26469706673582212206eda354c898d0d78807656fdd2b9c41ccfe9f0837654a57665c59d296b66fe2b64736f6c63430008040033",
  "immutableReferences": {},
  "source": "// SPDX-License-Identifier: MIT\r\npragma solidity >=0.4.22 <0.9.0;\r\n\r\ncontract CourseMarketplace {\r\n\r\n  enum State {\r\n    Purchased,\r\n    Activated,\r\n    Deactivated\r\n  }\r\n\r\n  struct Course {\r\n    uint id; // 32\r\n    uint price; // 32\r\n    bytes32 proof; // 32\r\n    address owner; // 20\r\n    State state; // 1\r\n  }\r\n\r\n  // mapping of courseHash to Course data\r\n  mapping(bytes32 => Course) private ownedCourses;\r\n\r\n  // mapping of courseID to courseHash\r\n  mapping(uint => bytes32) private ownedCourseHash;\r\n\r\n  // number of all courses + id of the course\r\n  uint private totalOwnedCourses;\r\n\r\n  address payable private owner;\r\n\r\n  constructor() {\r\n    setContractOwner(msg.sender);\r\n  }\r\n\r\n  /// Course has invalid state!\r\n  error InvalidState();\r\n\r\n  /// Course is not created!\r\n  error CourseIsNotCreated();\r\n\r\n  /// Course has already a Owner!\r\n  error CourseHasOwner();\r\n\r\n  /// Only owner has an access!\r\n  error OnlyOwner();\r\n\r\n  modifier onlyOwner() {\r\n    if (msg.sender != getContractOwner()) {\r\n      revert OnlyOwner();\r\n    }\r\n    _;\r\n  }\r\n\r\n  function purchaseCourse(\r\n    bytes16 courseId, // 0x00000000000000000000000000003130\r\n    bytes32 proof // 0x0000000000000000000000000000313000000000000000000000000000003130\r\n  )\r\n    external\r\n    payable\r\n  {\r\n    bytes32 courseHash = keccak256(abi.encodePacked(courseId, msg.sender));\r\n\r\n    if (hasCourseOwnership(courseHash)) {\r\n      revert CourseHasOwner();\r\n    }\r\n\r\n    uint id = totalOwnedCourses++;\r\n\r\n    ownedCourseHash[id] = courseHash;\r\n    ownedCourses[courseHash] = Course({\r\n      id: id,\r\n      price: msg.value,\r\n      proof: proof,\r\n      owner: msg.sender,\r\n      state: State.Purchased\r\n    });\r\n  }\r\n\r\n  function activateCourse(bytes32 courseHash)\r\n    external\r\n    onlyOwner\r\n  {\r\n    if (!isCourseCreated(courseHash)) {\r\n      revert CourseIsNotCreated();\r\n    }\r\n\r\n    Course storage course = ownedCourses[courseHash];\r\n\r\n    if (course.state != State.Purchased) {\r\n      revert InvalidState();\r\n    }\r\n\r\n    course.state = State.Activated;\r\n  }\r\n\r\n  function deactivateCourse(bytes32 courseHash)\r\n    external\r\n    onlyOwner\r\n  {\r\n    if (!isCourseCreated(courseHash)) {\r\n      revert CourseIsNotCreated();\r\n    }\r\n\r\n    Course storage course = ownedCourses[courseHash];\r\n\r\n    if (course.state != State.Purchased) {\r\n      revert InvalidState();\r\n    }\r\n\r\n    (bool success, ) = course.owner.call{value: course.price}(\"\");     // we transact back amount to user \r\n    require(success, \"Transfer failed!\");\r\n\r\n    course.state = State.Deactivated;\r\n    course.price = 0;\r\n  }\r\n\r\n  function transferOwnership(address newOwner)\r\n    external\r\n    onlyOwner\r\n  {\r\n    setContractOwner(newOwner);\r\n  }\r\n\r\n  function getCourseCount()\r\n    external\r\n    view\r\n    returns (uint)\r\n  {\r\n    return totalOwnedCourses;\r\n  }\r\n\r\n  function getCourseHashAtIndex(uint index)\r\n    external\r\n    view\r\n    returns (bytes32)\r\n  {\r\n    return ownedCourseHash[index];\r\n  }\r\n\r\n  function getCourseByHash(bytes32 courseHash)\r\n    external\r\n    view\r\n    returns (Course memory)\r\n  {\r\n    return ownedCourses[courseHash];\r\n  }\r\n\r\n  function getContractOwner()\r\n    public\r\n    view\r\n    returns (address)\r\n  {\r\n    return owner;\r\n  }\r\n\r\n  function setContractOwner(address newOwner) private {\r\n    owner = payable(newOwner);\r\n  }\r\n\r\n  function isCourseCreated(bytes32 courseHash)\r\n    private\r\n    view\r\n    returns (bool)\r\n  {\r\n    return ownedCourses[courseHash].owner != 0x0000000000000000000000000000000000000000;\r\n  }\r\n\r\n  function hasCourseOwnership(bytes32 courseHash)\r\n    private\r\n    view\r\n    returns (bool)\r\n  {\r\n    return ownedCourses[courseHash].owner == msg.sender;\r\n  }\r\n}",
  "sourcePath": "D:\\BitCoin\\latest Folder\\MarketPlace-eth\\marketplace-eth\\contracts\\CourseMarketPlace.sol",
  "compiler": {
    "name": "solc",
    "version": "0.8.4+commit.c7e474f2.Emscripten.clang"
  },
  "schemaVersion": "3.4.15",
  "updatedAt": "2023-11-20T16:52:31.128Z",
  "networkType": "ethereum",
  "devdoc": {
    "kind": "dev",
    "methods": {},
    "version": 1
  },
  "userdoc": {
    "errors": {
      "CourseHasOwner()": [
        {
          "notice": "Course has already a Owner!"
        }
      ],
      "CourseIsNotCreated()": [
        {
          "notice": "Course is not created!"
        }
      ],
      "InvalidState()": [
        {
          "notice": "Course has invalid state!"
        }
      ],
      "OnlyOwner()": [
        {
          "notice": "Only owner has an access!"
        }
      ]
    },
    "kind": "user",
    "methods": {},
    "version": 1
  }
}